{
  "_format": "hh-sol-artifact-1",
  "contractName": "EthTransfer",
  "sourceName": "contracts/EthTransfer.sol",
  "abi": [
    {
      "anonymous": false,
      "inputs": [
        {
          "indexed": true,
          "internalType": "address",
          "name": "from",
          "type": "address"
        },
        {
          "indexed": true,
          "internalType": "address",
          "name": "to",
          "type": "address"
        },
        {
          "indexed": false,
          "internalType": "uint256",
          "name": "amount",
          "type": "uint256"
        }
      ],
      "name": "Transferred",
      "type": "event"
    },
    {
      "inputs": [],
      "name": "getContractBalance",
      "outputs": [
        {
          "internalType": "uint256",
          "name": "",
          "type": "uint256"
        }
      ],
      "stateMutability": "view",
      "type": "function"
    },
    {
      "inputs": [
        {
          "internalType": "address payable",
          "name": "_to",
          "type": "address"
        },
        {
          "internalType": "uint256",
          "name": "_amount",
          "type": "uint256"
        }
      ],
      "name": "transferETH",
      "outputs": [],
      "stateMutability": "payable",
      "type": "function"
    },
    {
      "stateMutability": "payable",
      "type": "receive"
    }
  ],
  "bytecode": "0x608060405234801561001057600080fd5b50610531806100206000396000f3fe60806040526004361061002d5760003560e01c80636f9fb98a146100395780637b1a49091461006457610034565b3661003457005b600080fd5b34801561004557600080fd5b5061004e61008d565b60405161005b9190610276565b60405180910390f35b34801561007057600080fd5b5061008b60048036038101906100869190610320565b610095565b005b600047905090565b804710156100d8576040517f08c379a00000000000000000000000000000000000000000000000000000000081526004016100cf906103bd565b60405180910390fd5b600073ffffffffffffffffffffffffffffffffffffffff168273ffffffffffffffffffffffffffffffffffffffff1603610147576040517f08c379a000000000000000000000000000000000000000000000000000000000815260040161013e90610429565b60405180910390fd5b60008273ffffffffffffffffffffffffffffffffffffffff168260405161016d9061047a565b60006040518083038185875af1925050503d80600081146101aa576040519150601f19603f3d011682016040523d82523d6000602084013e6101af565b606091505b50509050806101f3576040517f08c379a00000000000000000000000000000000000000000000000000000000081526004016101ea906104db565b60405180910390fd5b8273ffffffffffffffffffffffffffffffffffffffff163073ffffffffffffffffffffffffffffffffffffffff167fd1ba4ac2e2a11b5101f6cb4d978f514a155b421e8ec396d2d9abaf0bb02917ee846040516102509190610276565b60405180910390a3505050565b6000819050919050565b6102708161025d565b82525050565b600060208201905061028b6000830184610267565b92915050565b600080fd5b600073ffffffffffffffffffffffffffffffffffffffff82169050919050565b60006102c182610296565b9050919050565b6102d1816102b6565b81146102dc57600080fd5b50565b6000813590506102ee816102c8565b92915050565b6102fd8161025d565b811461030857600080fd5b50565b60008135905061031a816102f4565b92915050565b6000806040838503121561033757610336610291565b5b6000610345858286016102df565b92505060206103568582860161030b565b9150509250929050565b600082825260208201905092915050565b7f496e73756666696369656e7420636f6e74726163742062616c616e6365000000600082015250565b60006103a7601d83610360565b91506103b282610371565b602082019050919050565b600060208201905081810360008301526103d68161039a565b9050919050565b7f496e76616c696420726563697069656e74206164647265737300000000000000600082015250565b6000610413601983610360565b915061041e826103dd565b602082019050919050565b6000602082019050818103600083015261044281610406565b9050919050565b600081905092915050565b50565b6000610464600083610449565b915061046f82610454565b600082019050919050565b600061048582610457565b9150819050919050565b7f4661696c656420746f2073656e64204554480000000000000000000000000000600082015250565b60006104c5601283610360565b91506104d08261048f565b602082019050919050565b600060208201905081810360008301526104f4816104b8565b905091905056fea26469706673582212203ad1d8a0fbcfc12813275f7953775b568fbf076f15deb5d50b5744270ce24e3d64736f6c63430008120033",
  "linkReferences": {},
  "deployedLinkReferences": {}
}