{
  "_format": "hh-sol-artifact-1",
  "contractName": "SmartSaver",
  "sourceName": "contracts/Lock.sol",
  "abi": [
    {
      "anonymous": false,
      "inputs": [
        {
          "indexed": true,
          "internalType": "address",
          "name": "user",
          "type": "address"
        },
        {
          "indexed": false,
          "internalType": "uint256",
          "name": "amount",
          "type": "uint256"
        },
        {
          "indexed": false,
          "internalType": "uint256",
          "name": "unlockTime",
          "type": "uint256"
        }
      ],
      "name": "Deposited",
      "type": "event"
    },
    {
      "anonymous": false,
      "inputs": [
        {
          "indexed": true,
          "internalType": "address",
          "name": "user",
          "type": "address"
        },
        {
          "indexed": false,
          "internalType": "uint256",
          "name": "amount",
          "type": "uint256"
        }
      ],
      "name": "Withdrawn",
      "type": "event"
    },
    {
      "inputs": [
        {
          "internalType": "uint256",
          "name": "_lockTimeInSeconds",
          "type": "uint256"
        }
      ],
      "name": "depositFunds",
      "outputs": [],
      "stateMutability": "payable",
      "type": "function"
    },
    {
      "inputs": [
        {
          "internalType": "address",
          "name": "",
          "type": "address"
        }
      ],
      "name": "deposits",
      "outputs": [
        {
          "internalType": "uint256",
          "name": "amount",
          "type": "uint256"
        },
        {
          "internalType": "uint256",
          "name": "unlockTime",
          "type": "uint256"
        }
      ],
      "stateMutability": "view",
      "type": "function"
    },
    {
      "inputs": [],
      "name": "getMyDeposit",
      "outputs": [
        {
          "internalType": "uint256",
          "name": "amount",
          "type": "uint256"
        },
        {
          "internalType": "uint256",
          "name": "unlockTime",
          "type": "uint256"
        }
      ],
      "stateMutability": "view",
      "type": "function"
    },
    {
      "inputs": [],
      "name": "withdrawFunds",
      "outputs": [],
      "stateMutability": "nonpayable",
      "type": "function"
    }
  ],
  "bytecode": "0x608060405234801561001057600080fd5b50610891806100206000396000f3fe60806040526004361061003f5760003560e01c806324600fc3146100445780633b76594d1461005b578063f413599214610077578063fc7e286d146100a3575b600080fd5b34801561005057600080fd5b506100596100e1565b005b6100756004803603810190610070919061052c565b6102c1565b005b34801561008357600080fd5b5061008c610456565b60405161009a929190610568565b60405180910390f35b3480156100af57600080fd5b506100ca60048036038101906100c591906105ef565b6104cd565b6040516100d8929190610568565b60405180910390f35b60008060003373ffffffffffffffffffffffffffffffffffffffff1673ffffffffffffffffffffffffffffffffffffffff1681526020019081526020016000206040518060400160405290816000820154815260200160018201548152505090506000816000015111610189576040517f08c379a000000000000000000000000000000000000000000000000000000000815260040161018090610679565b60405180910390fd5b80602001514210156101d0576040517f08c379a00000000000000000000000000000000000000000000000000000000081526004016101c7906106e5565b60405180910390fd5b6000803373ffffffffffffffffffffffffffffffffffffffff1673ffffffffffffffffffffffffffffffffffffffff168152602001908152602001600020600080820160009055600182016000905550503373ffffffffffffffffffffffffffffffffffffffff166108fc82600001519081150290604051600060405180830381858888f1935050505015801561026b573d6000803e3d6000fd5b503373ffffffffffffffffffffffffffffffffffffffff167f7084f5476618d8e60b11ef0d7d3f06914655adb8793e28ff7f018d4c76d505d582600001516040516102b69190610705565b60405180910390a250565b60003411610304576040517f08c379a00000000000000000000000000000000000000000000000000000000081526004016102fb9061076c565b60405180910390fd5b60008060003373ffffffffffffffffffffffffffffffffffffffff1673ffffffffffffffffffffffffffffffffffffffff1681526020019081526020016000206000015414610388576040517f08c379a000000000000000000000000000000000000000000000000000000000815260040161037f906107d8565b60405180910390fd5b600081426103969190610827565b90506040518060400160405280348152602001828152506000803373ffffffffffffffffffffffffffffffffffffffff1673ffffffffffffffffffffffffffffffffffffffff16815260200190815260200160002060008201518160000155602082015181600101559050503373ffffffffffffffffffffffffffffffffffffffff167f73a19dd210f1a7f902193214c0ee91dd35ee5b4d920cba8d519eca65a7b488ca348360405161044a929190610568565b60405180910390a25050565b60008060008060003373ffffffffffffffffffffffffffffffffffffffff1673ffffffffffffffffffffffffffffffffffffffff1681526020019081526020016000206040518060400160405290816000820154815260200160018201548152505090508060000151816020015192509250509091565b60006020528060005260406000206000915090508060000154908060010154905082565b600080fd5b6000819050919050565b610509816104f6565b811461051457600080fd5b50565b60008135905061052681610500565b92915050565b600060208284031215610542576105416104f1565b5b600061055084828501610517565b91505092915050565b610562816104f6565b82525050565b600060408201905061057d6000830185610559565b61058a6020830184610559565b9392505050565b600073ffffffffffffffffffffffffffffffffffffffff82169050919050565b60006105bc82610591565b9050919050565b6105cc816105b1565b81146105d757600080fd5b50565b6000813590506105e9816105c3565b92915050565b600060208284031215610605576106046104f1565b5b6000610613848285016105da565b91505092915050565b600082825260208201905092915050565b7f4e6f7468696e6720746f20776974686472617700000000000000000000000000600082015250565b600061066360138361061c565b915061066e8261062d565b602082019050919050565b6000602082019050818103600083015261069281610656565b9050919050565b7f46756e6473207374696c6c206c6f636b65640000000000000000000000000000600082015250565b60006106cf60128361061c565b91506106da82610699565b602082019050919050565b600060208201905081810360008301526106fe816106c2565b9050919050565b600060208201905061071a6000830184610559565b92915050565b7f53656e642045544820746f207361766500000000000000000000000000000000600082015250565b600061075660108361061c565b915061076182610720565b602082019050919050565b6000602082019050818103600083015261078581610749565b9050919050565b7f416c7265616479206465706f7369746564000000000000000000000000000000600082015250565b60006107c260118361061c565b91506107cd8261078c565b602082019050919050565b600060208201905081810360008301526107f1816107b5565b9050919050565b7f4e487b7100000000000000000000000000000000000000000000000000000000600052601160045260246000fd5b6000610832826104f6565b915061083d836104f6565b9250828201905080821115610855576108546107f8565b5b9291505056fea26469706673582212200dd842fe26d7f2ca73c8aeb7d01cf746b836691d7ecb8fda884e0a56252309ff64736f6c63430008120033",
  "linkReferences": {},
  "deployedLinkReferences": {}
}